S02B0000446179345F54656D70657261747572655F4F76657268656174696E675F5761726E696E675F4C69670A
S31500000000980A002091180000B91600008D1800000B
S315000000108D1800008D1800008D1800008D18000046
S315000000200000000000000000000000008D18000025
S315000000308D180000000000008D1800008D180000CB
S31500000040C109000035090000510A0000990A0000A4
S3150000005001100000990F000075100000B510000097
S31500000060000000000000000000000000000000008A
S31500000070000000000000000000000000000000007A
S31500000080000000000000000000000000000000006A
S31500000090000000000000000000000000000000005A
S315000000A0000000000000000000000000000000004A
S315000000B0000000000000000000000000000000003A
S315000000C0000000000000000000000000000000002A
S315000000D0000000000000000000000000000000001A
S315000000E0000000000000000000000000000000000A
S315000000F000000000000000000000000000000000FA
S3150000010000000000000000000000000000000000E9
S3150000011000000000000000000000000000000000D9
S3150000012000000000000000000000000000000000C9
S3150000013000000000000000000000000000000000B9
S3150000014000000000000000000000000000000000A9
S315000001500000000000000000000000000000000099
S315000001600000000000000000000000000000000089
S315000001700000000000000000000000000000000079
S315000001800000000000000000000000000000000069
S315000001900000000000000000000000000000000059
S315000001A00000000000000000000000000000000049
S315000001B00000000000000000000000000000000039
S315000001C00348044B834202D0034B03B118477047E0
S315000001D0FC010020FC01002000000000064B07493E
S315000001E0C91A891048BF0131491003D0044B0BB11D
S315000001F001481847704700BFFC010020FC010020A1
S315000002000000000010B5064C237843B9FFF7D8FF6D
S31500000210044B13B10448AFF300800123237010BDD3
S3150000022018020020000000001C2E000008B5054B37
S315000002301BB105490548AFF30080BDE80840FFF74C
S31500000240CDBF00BF000000001C0200201C2E0000D5
S31500000250022800D070470249024801F005B800BFE5
S315000002604C2A0000040300200379022B02D101224C
S31500000270014B1A70704700BF0103002038B50023F8
S31500000280094C0546237001F0BEFE29460246074882
S3150000029000F036F9237833B90121084601F0E0F978
S315000002A02378002BF8D038BD010300200C03002072
S315000002B00379012B04BF014A137070470003002025
S315000002C030B5072583B0002240F20D41264800F0E4
S315000002D017FF012240F20A41234800F011FF234C88
S315000002E0012240F20C41204800F00AFF01214FF4A0
S315000002F07A7001F0B5F90223224600211C480095C8
S3150000030000F048FE01214FF47A7001F0A9F90121AD
S315000003104FF47A70248801F0A3F9012240F20D41CE
S31500000320114800F0EDFE64BA002240F20A410E4880
S3150000033000F0E6FEA4B2002240F20C410A4800F0AA
S31500000340DFFE63070CD4E00801F096FD0022094B9E
S3150000035001F016FB01F0FAFD00EE100A03B030BD05
S315000003609FED050A03B030BD0403002034020020CF
S315000003703C0300200000D03F0000C07F2DE9F04F75
S315000003802DED028B4C4B83B04C494D481C88D3F85D
S31500000390048000F0DDFB4B494B4800F0FBF84B4E68
S315000003A04B4B93E8070086E807003046FFF766FFE9
S315000003B04FF47A71C82001F053F9002C7BD09FEDE1
S315000003C0458A454D454CDFF81CA1DFF81CB1444F6A
S315000003D0DFF81891EFF31082012383F310882B685E
S315000003E023B940218AF803308AF803102B680133B9
S315000003F02B6082F31088FFF763FFF3EE0E7AB4EEFC
S31500000400E70AF1EE10FAB8F804304FEA13224FEA81
S31500000410021252FA83F357F8232002EA090234DD66
S3150000042042F0050247F82320FCEEC07ACDED017AB2
S315000004309DF80420594607EE902AF8EEE77A30EE4A
S31500000440670A20EE080AFCEEC07ACDED017A304646
S315000004509DF8043001F0E0FD00233046237001F0E2
S31500000460D2FD31460246184800F04AF8237833B9DF
S315000004700121084601F0F4F82378002BF8D04FF458
S315000004807A71084601F0ECF8A4E7B4EE400AF1EE02
S3150000049010FA42F0040247F82320C5D7DFF82CC033
S315000004A0DFF84CE0BEE80F00ACE80F009EE807005E
S315000004B08CE80700D0E7FEE7D42D0000F429000001
S315000004C03C030020C02900000C0300203802002055
S315000004D07C2900000000C842BC0300200103002064
S315000004E000080840000D0840A4290000FE3FFEFF5A
S315000004F08829000008B5FFF741FF002008BD00BFAE
S3150000050010B4046AA37803F07B03A3708378046AAB
S3150000051003F00303D21A0B44C0E90332A37843F075
S315000005208003A370837803F00303022B06D0036ACB
S315000005300A780020DA705DF8044B70470B88026A6F
S3150000054043F47E43D38100205DF8044B704700BF1F
S31500000550F0B5846A85B005460F4694466E46B4B13A
S3150000056094E80F0086E80F00EB6920461B78A76029
S31500000570236084F804C0EB6AE3606B6A9847AC6A50
S315000005801CB196E80F0084E80F0005B0F0BD3446B4
S31500000590EAE700BF034600222DE9F041012508786D
S315000005A01A7000F5800000F58C500002C3E90710B0
S315000005B04869D14C58628E699878C3E90A2665F372
S315000005C0010098704878904214BF2E46022698780B
S315000005D066F30100987091F90BC091F80AE04FEAB2
S315000005E05C100CF01F06203005FA06F644F8206071
S315000005F0BFF34F8FBFF36F8FC0480CF1C00650F8A2
S31500000600267062F3104740F8267050F82660BC4EFC
S315000006104FEA0E1E04EB0C075FFA8EFE87F800E326
S3150000062046F82C3091F905C091F804E04FEA5C17C2
S315000006300CF01F08203705FA08F844F82780BFF3A6
S315000006404F8FBFF36F8F0CF1C00750F8278062F30E
S31500000650104840F8278050F827704FEA0E1E04EB2A
S315000006600C075FFA8EFE87F800E346F82C3091F906
S3150000067007C091F806E04FEA5C170CF01F08203718
S3150000068005FA08F844F82780BFF34F8FBFF36F8F42
S315000006900CF1C00750F8278062F3104840F8278015
S315000006A050F827704FEA0E1E04EB0C075FFA8EFE19
S315000006B087F800E346F82C3091F909C091F808E074
S315000006C04FEA5C170CF01F08203705FA08F844F8C3
S315000006D02780BFF34F8FBFF36F8F0CF1C00750F821
S315000006E0278062F3104840F8278050F827004FEA29
S315000006F00E10C0B2644484F8000346F82C30EFF3C1
S31500000700108685F310884FF000450C787D48E5404B
S31500000710446824EA05044460406886F3108840F281
S31500000720F9301C6AA2701C6A22711C6A62721C6A09
S31500000730A2721C6AE2721C6A62830A7820FA02F2CA
S31500000740D00702D540201A6AD074062440F2F93246
S31500000750186A04770878C240D20703D54FF4784068
S315000007601A6A9082CA7848788C78D200032842EABE
S31500000770041200F0DA8000280CBFE220F2201C6A86
S31500000780D2B222701A6A9071C869027B082A00F0F8
S31500000790C8801C6A520002F0020262730025427889
S315000007A08478D201640104F02004D2B222431C6A88
S315000007B025720478023C012C1C6A40F2A780D2B252
S315000007C0E27140681A6A847854704578147865F343
S315000007D001041470C4789474D479007804F0A304E6
S315000007E000F05C002043D0710020C3E90300C3E998
S315000007F00500DC69414A94F90540CD6904F1C00160
S3150000080052F8216095F800C060F3104642F8216066
S315000008100CF0030C52F82110BFF35F8F4FF0010E5E
S315000008206109890004F01F0401F1604101F561418D
S315000008300EFA04F4C1F880410C60D96991F90B40B5
S3150000084004F1C00152F8216060F3104642F82160BD
S3150000085052F82110BFF35F8F6109890004F01F046D
S3150000086001F160410EFA04F401F56141C1F88041DD
S315000008700C60D96991F9074004F1C00152F8216072
S3150000088060F3104642F8216052F82110BFF35F8FE3
S315000008906109890004F01F0401F160410EFA04F4B5
S315000008A001F56141C1F880410C60D96991F90910DF
S315000008B001F1C00452F8246060F3104642F8246047
S315000008C052F82420BFF35F8F4A09920001F01F01FE
S315000008D002F160420EFA01F102F56142C2F880119E
S315000008E011601A6A4CF0700C82F802C06989064AD7
S315000008F019815A60BDE8F08100E100E00060004027
S31500000900C00300200040084055494353FF25657049
S315000009100078022808BF42F01002186AD2B2C271EB
S3150000092062E70A241A6A547338E7F22042F040025A
S3150000093025E700BFEFF30383103B1F4A5BB203F1C9
S31500000940C00152F8210020F4803042F8210052F80C
S3150000095021201A4A52F82300C3691B6983B103692F
S3150000096003B17047026A0021937803F07F0343F0D6
S3150000097004039370436AC160C3B18022FFF7E8BDE8
S315000009800369026A002BEED08378C16803F0030383
S31500000990022B0CD00B78D3708278D0E9031302F0C7
S315000009A003029B1A1144C0E90313D9E770470B8869
S315000009B043F47E43D381EFE700600040C00300208C
S315000009C010B582B0EFF30383103B1F4A5BB203F10D
S315000009D0C00152F8210020F4803042F8210052F87C
S315000009E021201A4A52F82340A27802F00303022B70
S315000009F0236A0CBF198A5979A3690CBFC1F3080190
S31500000A00C9B2019143B9636AB3B10422204602B068
S31500000A10BDE81040FFF79CBD02F0030201A9606922
S31500000A2001F0E4FAD4E90521A37803F003031A449C
S31500000A30C91AC4E9052109B102B010BD636A002BC9
S31500000A40FAD00122E2E700BF00600040C0030020A8
S31500000A5010B5EFF303830E4A103B5CB252F8240044
S31500000A60026A937803F07B039370436A1BB10222F8
S31500000A700021FFF76DFD074A04F1C00352F8231069
S31500000A8021F4803142F8231052F8233010BD00BF04
S31500000A90C00300200060004010B5EFF303831A4A3C
S31500000AA0103B5CB252F82400837803F00303022B58
S31500000AB0036A0CBF198A597993F804C00CBFC1F3B5
S31500000AC00801C9B21CF0100F0CF0380206D093F8DA
S31500000AD01CC01CF0010F08BF42F0400293F804C08E
S31500000AE00CF0C70C83F804C0436A0BB1FFF730FD66
S31500000AF0064A04F1C00352F8231021F4803142F86B
S31500000B00231052F8233010BDC003002000600040BF
S31500000B1030B5436A85B004468C4601ADABB193E867
S31500000B20070085E8070062681846127883F804C053
S31500000B301A60A26A9A60236A9847636A1BB195E8AD
S31500000B40070083E8070005B030BD2B46EBE700BF82
S31500000B5000222DE9F04F0B78416003F5800303F581
S31500000B608C531B0283608B690D460362CB69044676
S31500000B70C0E909234B6983B093B14FF400215A6849
S31500000B801268116059688268096805324A60D3E9BB
S31500000B9001121868126890470646002840F0338113
S31500000BA02B6993B14FF000615A6812681160596859
S31500000BB0A268096803328A60D3E9011218681268CC
S31500000BC090470646002840F028816068026A817ACC
S31500000BD092F9023092F802C0002B437AAABF4FF076
S31500000BE0FF0C4FF0040E4FF0000E012B18BF00272C
S31500000BF092F8018012BFB94602274FF0050908F0A6
S31500000C0003080129C37A48F0800800F00081012B0F
S31500000C1014BF49F0800949F0C009437B002B0CBF83
S31500000C20EA26E226EFF3108A012383F310884FF0B9
S31500000C30004B01787E482BFA01FB416821EA0B0143
S31500000C40416041688AF3108800204FF0840A5FFAF9
S31500000C5089F14FF478490191A1685FFA88F88870A4
S31500000C60A16891F804B081F804A0A168A1F81490D5
S31500000C70A16881F80080A1688F70A16840278E71F5
S31500000C801678A268019956700226A26882F812C0E8
S31500000C90A26882F807E0A2685173A26865491072DB
S31500000CA0A2685072A2689072A268D072A26850833D
S31500000CB0A268D774A268604F167795F805C095F9B3
S31500000CC001205E4E4FEA0C1C06EB020E5FFA8CFC0E
S31500000CD08EF800C347F8224002F1C00C51F82CE010
S31500000CE060F3104E41F82CE051F82CC0BFF35F8F33
S31500000CF04FEA521C4FEA8C0C02F01F020CF1604CBA
S31500000D0003FA02F20CF5614CCCF88021CCF80020F5
S31500000D1095F806C095F902204FEA0C1C06EB020E68
S31500000D205FFA8CFC8EF800C347F8224002F1C00C33
S31500000D3051F82CE060F3104E41F82CE051F82CC02D
S31500000D40BFF35F8F4FEA521C4FEA8C0C02F01F0272
S31500000D500CF1604C03FA02F20CF5614CCCF88021E0
S31500000D60CCF8002095F807C095F903204FEA0C1C33
S31500000D7006EB020E5FFA8CFC8EF800C347F82240A1
S31500000D8002F1C00C51F82CE060F3104E41F82CE053
S31500000D9051F82CC0BFF35F8F4FEA521C4FEA8C0C00
S31500000DA002F01F020CF1604C03FA02F20CF5614CE2
S31500000DB0CCF88021CCF8002095F808C095F90420DD
S31500000DC04FEA0C151644EDB286F8005347F8224058
S31500000DD002F1C00551F8256060F3104641F8256020
S31500000DE051F82510BFF35F8F02F01F0152099200E0
S31500000DF002F160428B4002F56142C2F88031136015
S31500000E0006460F4B2360304603B0BDE8F08F002B3B
S31500000E107FF403AF49F04009FFE66B69002BF2D07F
S31500000E209A681868136A9847304603B0BDE8F08F91
S31500000E300040084000600040C003002000E100E0E0
S31500000E4053494353F8B51D4683689B7813F0300326
S31500000E5042D1C0E90533C0E903124368C5611646AD
S31500000E601A690446D2B145611B69AAB2586800687E
S31500000E70C281002932D04FF0020C5A681268D0782D
S31500000E806CF38300D0705A68126851605A6818680B
S31500000E9011689A6853689847E8B963685A6952B105
S31500000EA04EB1A5615B693246996818688E68ABB227
S31500000EB00021B04778B92369002B4BD063681A69C3
S31500000EC0002A49D0F021A26893780B439370636897
S31500000ED01A6972B10020F8BD0820F8BD5A682B4F78
S31500000EE01268D07861F38300D0705A681268576030
S31500000EF0CCE75A69002AEDD12269002AEAD00121FD
S31500000F0093F9013022485A0903F01F03203201FAEF
S31500000F1003F340F82230BFF34F8FBFF36F8F63693F
S31500000F20E269934207D2D4E9021252B3D35CCB7082
S31500000F306369013363616268517A012912D092F9BB
S31500000F400130012203F01F0011495B09824041F87C
S31500000F502320BFE7A021B6E75B69002B14BFF02171
S31500000F607021B0E7E1690129E9D99942E7D9D4E9C5
S31500000F70021242B1D35CCB7063696268013363616C
S31500000F80DDE7CA70D4E7CA70F6E700BF7803002031
S31500000F9000E100E0FFF756BFEFF30383103B164A6C
S31500000FA05BB203F1C00152F8210020F4803042F810
S31500000FB0210052F82120114A52F823305A69D96982
S31500000FC08A4208D2D3E9020199B18A5CC2705A6991
S31500000FD0D96901325A618A4200D070471A69002ADB
S31500000FE0FBD19A68937803F07B0343F00403937074
S31500000FF07047C170EBE700BF00600040C0030020EF
S31500001000EFF30383103B194A5BB203F1C00152F8B8
S31500001010210020F4803042F8210052F82120144AA1
S3150000102052F823305969DA69914208D2D3E90202AB
S31500001030D2B1525CC2705969DA6901315961996954
S31500001040914207D24A1C98689A6140791A695054AD
S31500001050D3E90612914206D19A68937803F03B03CE
S3150000106043F0040393707047C270E4E700600040E9
S31500001070C003002010B5EFF303830C4A103B5CB2AB
S3150000108052F8240001218268937803F003039370D9
S31500001090FFF73EFD064A04F1C00352F8231021F47F
S315000010A0803142F8231052F8233010BDC0030020CF
S315000010B00060004010B5EFF303834FF0840C0E4A36
S315000010C0103B5CB252F8240004218268937803F046
S315000010D00303937083681A7983F804C0FFF718FD39
S315000010E0064A04F1C00352F8231021F4803142F875
S315000010F0231052F8233010BDC003002000600040CA
S315000011000120CBB2984080B202B900040B0A5B0101
S3150000111003F1804303F5002398600020704700BF69
S315000011202DE9F84F0388DBB180464FF000094FF0F8
S31500001130010BDFF884A000241E4D4FEAC907D8F83A
S31500001140043035F8022BD919898891420AD0013426
S31500001150032CF4D1B8F8003009F101094B45EAD85F
S31500001160BDE8F88FDB590BFA04F603F0B853B3F178
S31500001170807FF6B29AF8BB340ED03342E7D0012016
S3150000118000F03AFB9AF8BB34012023EA06038AF8FA
S31500001190BB3400F001FBDAE73342D8D1012000F07E
S315000011A02BFB9AF8BB34012033438AF8BB3400F09A
S315000011B0F3FACCE7982D000000E00140F8B50646AA
S315000011C0FFF7AEFFEFF31082012383F31088234F5E
S315000011D03B681BB92249CB704023CB703B68013377
S315000011E03B6082F31088338823B300211D4D08E04D
S315000011F01B01134445F82340328801318BB29A42D1
S3150000120018D9736853F8314003EBC1029288E003A2
S315000012104FEA1223D2B2EBD502EB031055F820E0C9
S3150000122024F4803C2EF4803E45F820E01B0145F86E
S3150000123020C0DEE7EFF31082012383F310883B68BA
S3150000124013B13B68013B3B603B681BB980200449F6
S31500001250CB70C87082F31088F8BD00BFBC030020B5
S31500001260000D08400008084008B5034B0360084617
S31500001270FFF7A4FF002008BD54524F50844630B4F7
S3150000128082B0019100921D4990F904201C4D51F83D
S315000012902200C03255F822101A4C21F0807145F810
S315000012A022109CF9041041F40041E28992B2914265
S315000012B0FBD008222274019A0AB1019A4260009A70
S315000012C00AB1009A8260C27802F0C001802913D068
S315000012D03F2A98BFC381182200200A4B08491A7476
S315000012E09CF90430C03351F8232042F0807241F853
S315000012F0232002B030BC70478381ECE70000002059
S3150000130000600040005400400620704706207047E9
S31500001310034693F904300549C03351F823200020D1
S3150000132042F0807241F82320704700BF0060004001
S31500001330034693F904300549C03351F823200020B1
S3150000134022F0807241F82320704700BF0060004001
S31500001350002290F90400124B53F82030C1E9002214
S31500001360DA783F2A0CD94FF480728A60DA89D2B2D1
S31500001370CA60DA7802F0C002802A09D000207047DD
S315000013804FF480328A60DB8900209BB2CB607047C5
S315000013904FF480320A609B8900209BB24B607047F5
S315000013A000000020062070470620704703460022F2
S315000013B030B593F904C0074C0CF1C00E54F82E104A
S315000013C0054D21F0807144F82E1045F82C201A6046
S315000013D0104630BD006000400000002030B5864653
S315000013E090F904301C4DC03355F823201B4C22F0D5
S315000013F0807245F8232090F9042042F40042E389E4
S315000014009BB29A42FBD00B46DA789C463F2A05D916
S31500001410DA89D2B202EB022292B2DA819CF8022079
S3150000142010333F2AF0D84FF0080C18220B4B0C4D06
S3150000143083F810C09EF904C0074C45F82C101A74A6
S315000014409EF904300020C03354F8232042F0807205
S3150000145044F8232030BD00BF006000400054004027
S3150000146000000020F8B5274A044613780D4643B31A
S315000014706B6893F90030002B40DB234850F823209B
S31500001480002A3DD123712D68BDB12B46DA78194665
S315000014903F2A05D9DA89D2B202EB022292B2DA8168
S315000014A08A7810333F2AF1D808211822174B19746D
S315000014B094F9041040F821501A74154B002023604B
S315000014C0F8BD01261670EFF3108086F31088114AD6
S315000014D0116821F480011160126880F310880A4FA8
S315000014E019464FF4C072384600F0BCFD074B5F61E9
S315000014F01E736B6893F90030002BBEDA0B20F8BD23
S315000015000820F8BD790300200000002000540040A8
S315000015100043544400400840064B074993F8260010
S315000015201A6A51F82030C2F302620449D3400B60B4
S31500001530704700BF00E00140FC0100204C05002080
S315000015404AF2035001232F492F4A2DE9F043A1F80F
S31500001550FE03A2F80431B2F804319BB2002BFAD193
S3150000156001244FF4004529482949C0E90333856021
S31500001570A2F80041274A8C600C600260264A01F5F9
S31500001580B83191F8265042600A6A81F8804481F8A1
S315000015903630224B436191F83C30DA07FBD542F2F4
S315000015A011740023174A0C8581F82A3092F83C30D2
S315000015B09B06FBD505244FF003090123F1254FF0C7
S315000015C0F00E4FF4254CDFF84080154F88F81C913B
S315000015D0176282F8264092F82640124950F82400F5
S315000015E0146A114EC4F30264E04030600D730B724E
S315000015F081F80CE082F8303082F85230A2F8FEC34F
S31500001600BDE8F08300E0014000C00140FC0100207D
S3150000161000700040002D310100127A0000C2EB0B71
S3150000162021120120002000404C05002010B50024A6
S31500001630064B012083F8284000F0DEF8044B012019
S3150000164083F8BB44BDE8104000F0A6B8003008405F
S3150000165000E00140A0F101000028FBD1704700BF67
S315000016604FF47A7310B400FB01F1114C114A24684F
S31500001670B2FBF4F2A1FB03043CB9B0FBF2F0800824
S3150000168060B15DF8044BFFF7E5BF9200B1FBF2F1E4
S31500001690A1FB03132BB908460028F2D15DF8044BD1
S315000016A070474FF0FF3C5DF8044B6046FFF7D2BF32
S315000016B04C05002000CA9A3B70B500240B4B0C4E1B
S315000016C0B3F82021B3F84051ADB2154025FA04F322
S315000016D0DB0704D556F82430E0B203B1984701344D
S315000016E0102CF3D1014BA3F8305170BD00600040BF
S315000016F07C03002030B5032085B000F07DF86FF044
S31500001700FF054FF0FF31204C002322464FF0010E1B
S315000017101E488564CDE90111039104F1C00532F834
S31500001720020F590960B104A800EB810151F80C0CB5
S3150000173003F01F0C0EFA0CFC20EA0C0041F80C0C0E
S31500001740954203F10103EAD10199114B0F4A032097
S315000017501167C3F8801202995167C3F8841203997E
S315000017609167C3F8881200F017F80023094834F887
S31500001770022F03F1C00101330AB140F82120A5422E
S31500001780F5D105B030BD00BFD62C0000008000406A
S3150000179000E100E000600040EFF31081012383F3D5
S315000017A01088124B33F8102092B22AB133F8102069
S315000017B0013A92B223F8102033F810309BB293B955
S315000017C010B40B4A0B4CB2F8FE3334F810009BB23F
S315000017D043F4254323EA0003A2F8FE3381F310887D
S315000017E05DF8044B704781F3108870474005002070
S315000017F000E00140CC2D000030B4EFF3108101234E
S3150000180083F310880E4A32F810309BB26BB90D4C38
S315000018100D4DB4F8FE3335F810C09BB243EA0C0305
S3150000182043F425439BB2A4F8FE3332F8103001335B
S315000018309BB222F8103081F3108830BC704700BF8D
S315000018404005002000E00140CC2D000008B50C4A00
S315000018500346106840B103330A4923F003030344E7
S315000018608B4205D8136008BD074908461160F2E7A8
S3150000187000F0F2FB0C2203461A604FF0FF3008BD61
S3150000188048050020980600209806002000BE7047F4
S3150000189008B500F003F8FEF72DFEFEE74FF47002E0
S315000018A070B52B4B2B4CC3F8882000209C60FEF7AC
S315000018B0CFFCFFF745FE0120FEF7CAFC2368A3F51F
S315000018C0806383F30A882448244A0021121A00F010
S315000018D0C9FB2348234A2449121A00F087FB234DEB
S315000018E0234B5B1B002B07DD00249E1055F8043BA1
S315000018F001349847A642F9DCFFF70EFEFFF796FE85
S315000019000320FFF779FF00234FF6FF70194903F113
S31500001910080201330C2B21F81200F8D10024032011
S31500001920FFF73AFF0320FFF767FF134B03205C60C6
S315000019309C60DC601C61FFF72FFF0220FEF788FC2D
S31500001940FFF7D8FE2046BDE8704000F017B800BF8C
S3150000195000ED00E0000000001802002098060020BC
S3150000196080010020FC010020482E0000F401002028
S31500001970F8010020000D084000000E40704700BF2F
S3150000198070B54FF0FF0C4CF4E06C1CEA11541DBF0F
S315000019901CEA135594EA0C0F95EA0C0F00F0DEF8DA
S315000019A02C4481EA030621EA4C5123EA4C5350EABF
S315000019B0013518BF52EA033541F4801143F4801310
S315000019C038D0A0FB02CE4FF00005E1FB02E506F0A1
S315000019D00042E0FB03E54FF00006E1FB03569CF0F6
S315000019E0000F18BF4EF0010EA4F1FF04B6F5007FFC
S315000019F064F5407404D25FEA4E0E6D4146EB06066E
S31500001A0042EAC62141EA55514FEAC52040EA5E50F6
S31500001A104FEACE2EB4F1FD0C88BFBCF5E06F1ED8A0
S31500001A20BEF1004F08BF5FEA500E50F1000041EBD7
S31500001A30045170BD06F0004646EA010140EA020084
S31500001A4081EA0301B4EB5C04C2BFD4EB0C0541EAA6
S31500001A50045170BD41F480114FF0000E013C00F3BB
S31500001A60AB8014F1360FDEBF002001F0004170BDDF
S31500001A70C4F10004203C35DA0C341BDC04F11404F8
S31500001A80C4F1200500FA05F320FA04F001FA05F284
S31500001A9040EA020001F0004221F0004110EBD37051
S31500001AA021FA04F642EB06015EEA430E08BF20EA7D
S31500001AB0D37070BDC4F10C04C4F1200500FA04F320
S31500001AC020FA05F001FA04F240EA020001F00041B2
S31500001AD010EBD37041F100015EEA430E08BF20EA25
S31500001AE0D37070BDC4F1200500FA05F24EEA020E6D
S31500001AF020FA04F301FA05F243EA020321FA04F09C
S31500001B0001F0004121FA04F220EA020000EBD37052
S31500001B105EEA430E08BF20EAD37070BD94F0000F52
S31500001B200FD101F00046400041EB010111F4801F86
S31500001B3008BF013CF7D041EA060195F0000F18BF37
S31500001B40704703F00046520043EB030313F4801F73
S31500001B5008BF013DF7D043EA0603704794EA0C0F2D
S31500001B600CEA135518BF95EA0C0F0CD050EA410643
S31500001B7018BF52EA4306D1D181EA030101F00041C0
S31500001B804FF0000070BD50EA410606BF10461946E8
S31500001B9052EA430619D094EA0C0F02D150EA0136F4
S31500001BA013D195EA0C0F05D152EA03361CBF104635
S31500001BB019460AD181EA030101F0004141F0FE41D4
S31500001BC041F470014FF0000070BD41F0FE4141F458
S31500001BD0780170BD81F0004102E000BF83F0004350
S31500001BE030B54FEA41044FEA430594EA050F08BFB2
S31500001BF090EA020F1FBF54EA000C55EA020C7FEA76
S31500001C00645C7FEA655C00F0E2804FEA5454D4EBF2
S31500001C105555B8BF6D420CDD2C4480EA020281EABC
S31500001C20030382EA000083EA010180EA020281EAF4
S31500001C300303362D88BF30BD11F0004F4FEA013146
S31500001C404FF4801C4CEA113102D0404261EB410155
S31500001C5013F0004F4FEA03334CEA133302D05242DB
S31500001C6063EB430394EA050F00F0A780A4F1010497
S31500001C70D5F1200E0DDB02FA0EFC22FA05F28018D1
S31500001C8041F1000103FA0EF2801843FA05F35941B7
S31500001C900EE0A5F120050EF1200E012A03FA0EFC36
S31500001CA028BF4CF0020C43FA05F3C01851EBE37160
S31500001CB001F0004507D54FF0000EDCF1000C7EEB7D
S31500001CC000006EEB0101B1F5801F1BD3B1F5001FBB
S31500001CD00CD349085FEA30004FEA3C0C04F10104DA
S31500001CE04FEA445212F5800F80F09A80BCF1004F03
S31500001CF008BF5FEA500C50F1000041EB045141EA85
S31500001D00050130BD5FEA4C0C404141EB0101013C4D
S31500001D1028BFB1F5801FE9D291F0000F04BF01463C
S31500001D200020B1FA81F308BF2033A3F10B03B3F10E
S31500001D3020020CDA0C3208DD02F1140CC2F10C029E
S31500001D4001FA0CF021FA02F10CE002F11402D8BFFC
S31500001D50C2F1200C01FA02F120FA0CFCDCBF41EAC8
S31500001D600C019040E41AA2BF01EB0451294330BD97
S31500001D706FEA04041F3C1CDA0C340EDC04F1140474
S31500001D80C4F1200220FA04F001FA02F340EA03004B
S31500001D9021FA04F345EA030130BDC4F10C04C4F191
S31500001DA0200220FA02F001FA04F340EA0300294671
S31500001DB030BD21FA04F0294630BD94F0000F83F4BB
S31500001DC0801306BF81F480110134013D4EE77FEA9E
S31500001DD0645C18BF7FEA655C29D094EA050F08BFEA
S31500001DE090EA020F05D054EA000C04BF19461046CB
S31500001DF030BD91EA030F1EBF0021002030BD5FEA0F
S31500001E00545C05D14000494128BF41F0004130BD36
S31500001E1014F580043CBF01F5801130BD01F000458A
S31500001E2045F0FE4141F470014FF0000030BD7FEAFD
S31500001E30645C1ABF194610467FEA655C1CBF0B46F8
S31500001E40024650EA013406BF52EA033591EA030F0F
S31500001E5041F4002130BD00BF90F0000F04BF002107
S31500001E60704730B54FF4806404F132044FF000053A
S31500001E704FF0000150E700BF90F0000F04BF0021B3
S31500001E80704730B54FF4806404F1320410F0004519
S31500001E9048BF40424FF000013EE700BF42004FEA14
S31500001EA0E2014FEA31014FEA02701FBF12F07F4391
S31500001EB093F07F4F81F06051704732F07F4208BF48
S31500001EC0704793F07F4F04BF41F40021704730B54F
S31500001ED04FF4607401F0004521F000411CE700BF9B
S31500001EE050EA010208BF704730B54FF000050AE01E
S31500001EF050EA010208BF704730B511F0004502D51F
S31500001F00404261EB41014FF4806404F132045FEA20
S31500001F10915C3FF4D8AE4FF003025FEADC0C18BFC9
S31500001F2003325FEADC0C18BF033202EBDC02C2F1BB
S31500001F30200300FA03FC20FA02F001FA03FE40EA4D
S31500001F400E0021FA02F11444BDE600BF4FEA410239
S31500001F50B2F1E04324BFB3F5001CDCF1FE5C0DD901
S31500001F6001F0004C4FEAC0024CEA5070B2F1004F4B
S31500001F7040EB830008BF20F00100704711F0804F4E
S31500001F8021D113F13872BCBF01F00040704741F413
S31500001F9080114FEA5252C2F11802C2F1200C10FA17
S31500001FA00CF320FA02F018BF40F001004FEAC123FB
S31500001FB04FEAD32303FA0CFC40EA0C0023FA02F39F
S31500001FC04FEA4303CCE77FEA625307D150EA013375
S31500001FD01EBF4FF0FE4040F44000704701F0004045
S31500001FE040F0FE4040F40000704700BF0A44431E24
S31500001FF0914200D1704710B511F8014B914203F898
S31500002000014FF9D110BD034613F8012B002AFBD16D
S31500002010181A01387047FFFF0EB400B59CB06FF078
S3150000202000411DAB029006900791049108480949AA
S3150000203053F8042B059102A90068019300F078F883
S31500002040029B00221A701CB05DF804EB03B07047C7
S31500002050A40100200802FFFF014B1868704700BF6B
S31500002060A401002002440346934200D1704703F8BE
S31500002070011BF9E7704770472DE9F0471F468E6848
S3150000208082460C46BE4290460B682DD8B1F90C200C
S3150000209012F4906F26D06569096905EB4505A3EB37
S315000020A001097B1C05EBD5754B446D109D4238BF6D
S315000020B01D46530527D5294600F0F6FA064660B3B5
S315000020C04A462169FFF792FFA38923F4906343F000
S315000020D08003A38126614E446561A5EB0905266050
S315000020E03E46A560BE4200D93E463246414620687D
S315000020F000F076FBA36800209B1BA3602368334493
S315000021002360BDE8F0872A4600F084FB06460028D7
S31500002110E0D12169504600F0ABFB0C234FF0FF30B5
S31500002120CAF80030A38943F04003A381E9E7FFFF23
S315000021302DE9F04F98468B899DB007461B060D4644
S31500002140144610D50B6973B9402100F0ADFA28602A
S31500002150286130B90C233B604FF0FF301DB0BDE85D
S31500002160F08F40236B610023CDF80C804FF00109FE
S31500002170DFF8A081099320238DF8293030238DF8CC
S315000021802A3023469A4613F8012B0AB1252AF9D19B
S31500002190BAEB040B0BD05B46224629463846FFF7BE
S315000021A06BFF013000F0A780099A5A4409929AF809
S315000021B00030002B00F09F8000234FF0FF320AF121
S315000021C0010A049307938DF853301A93CDE905233A
S315000021D0544605224F4814F8011B00F035FA049ABC
S315000021E0D8B9D00644BF20238DF85330110744BF19
S315000021F02B238DF853309AF800302A2B15D0079AE6
S31500002200544600204FF00A0C214611F8013B303BA2
S31500002210092B4BD9B0B1079214E0A0EB0803A246F4
S3150000222009FA03F313430493D2E7039B191D1B68B2
S31500002230002B0391BBBF5B4242F002020793079358
S31500002240B8BF049223782E2B0AD163782A2B32D179
S31500002250039B02341A1D1B6843EAE373039205933A
S31500002260DFF8C0A003222178504600F0EDF938B11E
S31500002270A0EB0A004022049B0134824013430493DE
S3150000228014F8011B062224488DF8281000F0DCF90A
S31500002290002836D0214B1BBB039B073323F00703D3
S315000022A008330393099B334409936AE70CFB023214
S315000022B00C460120A8E7002301344FF00A0C19460A
S315000022C00593204610F8012B303A092A03D9002B32
S315000022D0C6D00591C4E70CFB012104460123F0E7B3
S315000022E003AB2A4604A9384600930D4BAFF3008092
S315000022F0421C0646D6D1AB895B063FF52DAF099841
S315000023002CE703AB2A4604A938460093044B00F099
S315000023107DF8EDE7E82D0000F22D0000000000003A
S3150000232079200000EE2D00002DE9F047164698466C
S315000023308A6807460B690C46DDF820909342B8BFC1
S315000023401346336091F843200AB1013333602368A2
S31500002350990642BF336802333360256815F00605D7
S3150000236006D104F1190AE36832689B1AAB422BDCEA
S3150000237094F843302268003B18BF0123920630D4FC
S3150000238004F1430241463846C847013023D023684A
S315000023901A3454F80A2C03F00603042B0ABF54F827
S315000023A00E5C002533684FF0000608BFED1A54F89E
S315000023B0123C08BF25EAE5759342C4BF9B1AED1887
S315000023C0B5421AD1002008E001235246414638465C
S315000023D0C847013003D14FF0FF30BDE8F087013523
S315000023E0C1E7E1185A1C30200233224481F8430029
S315000023F094F8451082F84310C2E70123224641466D
S315000024003846C8470130E6D00136D9E72DE9FF47FF
S315000024100F7E914680460C46782F9A460C9E01F117
S31500002420430207D8622F0AD8002F00F0D180582F18
S3150000243000F0B88004F1420684F842703AE0A7F151
S315000024406303152BF6D801A151F823F0A52400004B
S31500002450B92400003524000035240000352400008E
S3150000246035240000B924000035240000352400007E
S315000024703524000035240000B7250000E3240000C1
S31500002480712500003524000035240000D925000000
S3150000249035240000E3240000352400003524000024
S315000024A07925000033681A1D1B68326004F1420664
S315000024B084F8423001239CE033682068191D31609E
S315000024C0060601D51D6803E04506FBD5B3F90050A5
S315000024D0002D03DA2D236D4284F8433058480A2331
S315000024E011E021683368080653F8045B02D44906F4
S315000024F048BFADB26F2F3360514814BF0A2308237B
S31500002500002184F843106668002EA66005DB21686A
S315000025102E4321F0040121604BD01646B5FBF3F1A2
S3150000252003FB1157C75D06F8017D2F460D46BB42DA
S31500002530F4D9082B0BD12368DF0708D52369616816
S315000025409942DEBF302306F8013C06F1FF36921BA6
S3150000255022614B4603AA21464046CDF800A0FFF76C
S31500002560E3FE01304AD14FF0FF3004B0BDE8F087FA
S31500002570236843F02003236078273248236884F8D1
S3150000258045701F06316851F8045B02D45F0648BFE8
S31500002590ADB23160D90744BF43F0200323601DB1BB
S315000025A01023ADE72648E9E7236823F020032360DC
S315000025B0F6E71646BDE733682568181D6169306081
S315000025C02E061B6801D5196002E06806FBD5198046
S315000025D0002316462361BCE7336800211A1D3260CA
S315000025E01E686268304600F02FF808B1801B6060F4
S315000025F063682361002384F84330AAE723693246DF
S3150000260049464046D0470130ADD023689B0713D4D6
S31500002610E068039B9842B8BF1846A6E701233246F6
S3150000262049464046D04701309DD00135E3680399BD
S315000026305B1AAB42F2DCEBE7002504F11906F5E77D
S31500002640F92D00000A2E0000C9B20346024410B557
S315000026509342184601D1002003E0047801338C42EE
S31500002660F6D110BD70B50F4E0C460546316811B94E
S3150000267000F0A6F830602146284600F0A1F8431C79
S3150000268003D14FF0FF34204670BDC41C24F0030470
S31500002690A042F8D0211A284600F092F80130F2D173
S315000026A0EFE700BF900600202DE9F843CD1C064653
S315000026B025F0030508350C2D38BF0C25002D01DB50
S315000026C0A94204D90C2333600020BDE8F883DFF863
S315000026D0D48000F069F8D8F800301C4644BB29467F
S315000026E03046FFF7BFFF431C044658D1D8F80040D8
S315000026F02746002F43D1002C4BD02368394630465D
S3150000270004EB030900F05CF8814542D121683046AC
S315000027106D1A2946FFF7A6FF01303AD023682B44ED
S315000027202360D8F800305A6862BBC8F800700FE022
S315000027302268521B20D40B2A17D96119A34225609F
S3150000274018BF5960636808BFC8F8001062514B6033
S31500002750304600F02FF804F10B00231D20F007008F
S31500002760C21A1CBF1B1AA350AFE76268A3420CBF74
S31500002770C8F800205A60EBE723466468AEE73C469B
S315000027807F68B6E71A465B68A342FBD10023536015
S31500002790DEE70C233046336000F00CF894E7056062
S315000027A0D6E700BF940600200148FFF763BC00BFD0
S315000027B0880600200148FFF75EBC00BF880600209F
S315000027C038B50023054D044608462B60FFF73EF852
S315000027D0431C02D12B6803B1236038BD8C06002050
S315000027E0884210B501EB020402D98442234607D879
S315000027F0431EA14208D011F8012B03F8012FF8E778
S31500002800024401468A4200D110BD13F8014D02F878
S31500002810014DF7E72DE9F041074614460D4621B96B
S315000028201146BDE8F041FFF73FBF2AB9254600F043
S315000028301FF82846BDE8F08100F064F88442064699
S3150000284002D8B4EB500FF4D821463846FFF72CFFD8
S31500002850804608B94546ECE7B4422246294628BFD9
S315000028603246FFF7C3FB2946384600F001F8F1E788
S3150000287038B50546002941D051F8043C0C1F002B01
S31500002880B8BFE418FFF790FF1D4A136833B96360B9
S3150000289014602846BDE83840FFF78CBFA34208D92C
S315000028A0206821188B4201BF19685B6809182160EE
S315000028B0EDE71A465B680BB1A342FAD911685018C6
S315000028C0A0420BD120680144501811608342E0D128
S315000028D018685B68084453601060DAE702D90C2375
S315000028E02B60D6E7206821188B4202BF19685B6807
S315000028F00918636008BF21605460CAE738BD00BF8D
S315000029009406002051F8043C181F002BBCBF0B583E
S31500002910C01870474275696C7420776974682052D4
S31500002920656E6573617320416476616E63656420CC
S31500002930466C657869626C6520536F667477617260
S3150000294065205061636B6167652076657273696F98
S315000029506E20352E342E3000352E342E30000000F9
S3150000296000000405F8B500BFF8BC08BC9E467047D9
S31500002970F8B500BFF8BC08BC9E46704753504920C6
S31500002980656E7472790D0A004E6F20746865726DFB
S315000029906F636F75706C65206174746163686564DC
S315000029A0210D0A0054656D70657261747572653A21
S315000029B02025642E2530326420430D0A00FFFFFFD8
S315000029C0050200000C000C010C020C0300000000C4
S315000029D0000000006902000000000000E02900007D
S315000029E000010000800100200F00FFFF0000000032
S315000029F0FFFF000000040506070C0C0C0C0000008D
S31500002A00010000001C2A0000342A0000B102000068
S31500002A1000000000182A00006602A2FF68030020DA
S31500002A20282A0000A02D000084010020302A000082
S31500002A3005FFFFFF70030020402A0000A02D0000C4
S31500002A4094010020482A000004FFFFFF5000000008
S31500002A50582A00000000000000800000000000006E
S31500002A60008000000100000000800000020000005D
S31500002A700080000003000000104000000400000079
S31500002A801040000005000000104000000600000095
S31500002A901040000008000000008000000E0000004A
S31500002AA0008000000F00000000000000040100008C
S31500002AB00000000005010000000C010008010000F4
S31500002AC0000000000B010000000C01120C010000C8
S31500002AD0000C01120D010000000C01120E01000095
S31500002AE0000000000F0100000000010502020000C6
S31500002AF000000105030200000000010504020000B9
S31500002B0000000105050200000000000006020000AA
S31500002B10000000000702000000000000080200009C
S31500002B20450C00000A020000000C01170B02000011
S31500002B30000C01170E020000000C0100000300004B
S31500002B40450C000003030000450C000006030000CE
S31500002B50450C000007030000450C00000B030000B5
S31500002B60400C010700040000400C010701040000AE
S31500002B7010400000020400001040000003040000A2
S31500002B801040000004040000000C011705040000BA
S31500002B90000C011706040000000C011307040000D6
S31500002BA0450C000009040000000C01040A040000A2
S31500002BB0000C01040B040000000C01040C040000CE
S31500002BC0050000000D040000000000000E040000D7
S31500002BD0000000000F040000000C010500050000C5
S31500002BE0000C010501050000000C010502050000AE
S31500002BF000000000030500000000000005050000BD
S31500002C000000000006050000000C01050805000094
S31500002C10400C01070B050000400C01070C050000E5
S31500002C20040C000001060000040C0000020600006F
S31500002C30040C000003060000040C0000050600005A
S31500002C400000000008060000040C00000906000051
S31500002C50040C00000A060000000000000B0600003D
S31500002C60400C01050D060000400C01050E06000093
S31500002C70000C01130F060000000C011700070000EE
S31500002C80000C011701070000000C011702070000E5
S31500002C90000C011703070000000C011704070000D1
S31500002CA0000C011705070000000C010506070000CF
S31500002CB0000C0105070700000000000008070000DF
S31500002CC00040000003080000004000000408000067
S31500002CD0000C0113080A00009E019F01A001A1013A
S31500002CE080018101820183010000000000000000D4
S31500002CF000000000000000000000000000000000CE
S31500002D0000000000000000000000000000000000BD
S31500002D1000000000000000000000000000000000AD
S31500002D20000000000000000000000000000000009D
S31500002D30000000000000000000000000000000008D
S31500002D40000000000000000000000000000000007D
S31500002D50000000000000000000000000000000006D
S31500002D60000000000000000000000000000000005D
S31500002D70000000000000000000000000000000004D
S31500002D80000000000000000000000000000000003D
S31500002D900000000000000000020403040404FFFF1A
S31500002DA065140000DD1300007D1200001113000001
S31500002DB031130000091300000D1300005113000029
S31500002DC0AD130000A5130000A913000001000200C6
S31500002DD00800100006000000DC2D00000A060906A7
S31500002DE00106020603060506232D302B2000686C1B
S31500002DF04C00656667454647003031323334353618
S31500002E003738394142434445460030313233343550
S31500002E103637383961626364656600FF100000006A
S31500002E2000000000017A5200027C0E011B0C0D000E
S31500002E301000000018000000CEF1FFFF1000000097
S30D00002E40000000000000000084
S31500002E4840003500000010080000000000000000E7
S31500002E58000000000000080000000000000000005C
S31500002E6800000000A8010020000000005005002016
S31500002E78B805002020060020000000000000000021
S31500002E880000000000000000000000000000000034
S31500002E980000000000000000000000000000000024
S31500002EA80000000000000000000000000000000014
S31100002EB8000000002D02000005020000D2
S3150100A100FFFFFFFFFFFFFFFFFFFFFFFFFFFFFFFF58
S3090100A110FFFFFFFF48
S3090100A134FFFFFFFF24
S3150100A200FFFDFFFFFFFFFFFFFFFFFFFFFFFFFFFF59
S3150100A210FFFFFFFFFFFFFFFFFFFFFFFFFFFFFFFF47
S3150100A220FFFFFFFFFFFFFFFFFFFFFFFFFFFFFFFF37
S3150100A230FFFFFFFFFFFFFFFFFFFFFFFFFFFFFFFF27
S3150100A240FFFFFFFFFFFFFFFFFFFFFFFFFFFFFFFF17
S3150100A250FFFFFFFFFFFFFFFFFFFFFFFFFFFFFFFF07
S3150100A260FFFFFFFFFFFFFFFFFFFFFFFFFFFFFFFFF7
S3150100A270FFFFFFFFFFFFFFFFFFFFFFFFFFFFFFFFE7
S3150100A280F8F8FFFFFFFFFFFFFFFFFFFFFFFFFFFFE5
S3150100A290FFFFFFFFFFFFFFFFFFFFFFFFFFFFFFFFC7
S3150100A2A0FFFFFFFFFFFFFFFFFFFFFFFFFFFFFFFFB7
S3150100A2B0FFFFFFFFFFFFFFFFFFFFFFFFFFFFFFFFA7
S3150100A2C0FFFFFFFFFFFFFFFFFFFFFFFFFFFFFFFF97
S7050000189151
