S01600004C65645F436F6E74726F6C6C65722E7372656376
S3150000000050060020D90F0000410E0000D50F000059
S31500000010D50F0000D50F0000D50F0000D50F00004A
S31500000020000000000000000000000000D50F0000E6
S31500000030D50F000000000000D50F0000D50F00000E
S31500000040F509000069090000850A0000CD0A0000D4
S31500000050000000000000000000000000000000009A
S31500000060000000000000000000000000000000008A
S31500000070000000000000000000000000000000007A
S31500000080000000000000000000000000000000006A
S31500000090000000000000000000000000000000005A
S315000000A0000000000000000000000000000000004A
S315000000B0000000000000000000000000000000003A
S315000000C0000000000000000000000000000000002A
S315000000D0000000000000000000000000000000001A
S315000000E0000000000000000000000000000000000A
S315000000F000000000000000000000000000000000FA
S3150000010000000000000000000000000000000000E9
S3150000011000000000000000000000000000000000D9
S3150000012000000000000000000000000000000000C9
S3150000013000000000000000000000000000000000B9
S3150000014000000000000000000000000000000000A9
S315000001500000000000000000000000000000000099
S315000001600000000000000000000000000000000089
S315000001700000000000000000000000000000000079
S315000001800000000000000000000000000000000069
S315000001900000000000000000000000000000000059
S315000001A00000000000000000000000000000000049
S315000001B00000000000000000000000000000000039
S315000001C00348044B834202D0034B03B118477047E0
S315000001D00C0000200C00002000000000064B074920
S315000001E0C91A891048BF0131491003D0044B0BB11D
S315000001F001481847704700BF0C0000200C00002083
S315000002000000000010B5064C237843B9FFF7D8FF6D
S31500000210044B13B10448AFF300800123237010BDD3
S3150000022028000020000000002415000008B5054B3A
S315000002301BB105490548AFF30080BDE80840FFF74C
S31500000240CDBF00BF000000002C00002024150000D8
S3150000025070B483B002AB0A4603E90300EFF31080E3
S31500000260012383F31088234B196819B9224CE170D6
S315000002704021E17019680131196080F31088D48833
S3150000028010895189220A120152FA84F41B4A1C4E23
S3150000029052F82450354045F0050542F82450040A2A
S315000002A0240154FA80F052F82040344044F005040A
S315000002B042F82040080A000150FA81F152F8210064
S315000002C0304040F0050042F82100EFF31082012192
S315000002D081F31088196811B11968013919601B6812
S315000002E01BB980200449CB70C87082F3108803B014
S315000002F070BC7047C0000020000D08400008084090
S31500000300FE3FFEFF2DE9F04F6F4B87B01A8804AC15
S3150000031093E80300029284E8030002B9FEE70B4665
S315000003201E466A496A4800F04FF994E80300A6F1B0
S31500000330020B684F684CDFF89891684DFFF788FF0D
S31500000340CDF80CB0EFF31082012383F310883B68DD
S315000003501BB940216248C370C1703B6801333B60E2
S3150000036082F310884FF0000ADDF80C804FF000038E
S31500000370042248465B49237000F0DCF8237833B941
S315000003800121084600F030FD2378002BF8D04FF00D
S315000003900003032248465449237000F0CBF8237823
S315000003A033B90121084600F01FFD2378002BF8D051
S315000003B0BAF1010F75D0BAF1020F60D00023052201
S315000003C048464A49237000F0B5F8237833B901212D
S315000003D0084600F009FD2378002BF8D038F8023FD4
S315000003E0DFF814B11A0A120152FA83F355F82310F2
S315000003F0B8F8066001EA0B0141F0050145F8231043
S31500000400310A0901019351FA86F655F826104FF480
S31500000410FA6001EA0B0141F0040145F826104FF499
S315000004207A7100F0E1FC019B0AF1010A55F82310EC
S3150000043001EA0B0141F0040145F8231055F8263076
S3150000044003EA0B0343F0050345F82630029B9A4561
S3150000045002D2BAF1030F89D1EFF31082012383F39D
S3150000046010883B6813B13B68013B3B603B681BB996
S3150000047080211B48C370C17082F3108862E7002395
S31500000480062248461A49237000F054F82378002BB8
S31500000490A4D10121084600F0A7FC2378002BF8D050
S315000004A09CE70023072248461249237000F042F8D1
S315000004B02378002B92D10121084600F095FC237881
S315000004C0002BF8D08AE700BF10150000801100004D
S315000004D050000020C0000020440000200008084012
S315000004E0000D08405C110000641100006811000056
S315000004F07811000070110000FE3FFEFF022800D0B8
S3150000050070470249024800F0C1BB00BFB4110000A9
S31500000510480000200379022B02D10122014B1A70F8
S31500000520704700BF4400002008B5FFF7EBFE00202F
S3150000053008BD00BF10B4046AA37803F07B03A37060
S315000005408378046A03F00303D21A0B44C0E903322A
S31500000550A37843F08003A370837803F00303022B90
S3150000056006D0036A0A780020DA705DF8044B7047FB
S315000005700B88026A43F47E43D38100205DF8044B66
S31500000580704700BFF0B5846A85B005460F469446AD
S315000005906E46B4B194E80F0086E80F00EB6920467A
S315000005A01B78A760236084F804C0EB6AE3606B6A7B
S315000005B09847AC6A1CB196E80F0084E80F0005B0B6
S315000005C0F0BD3446EAE700BF034600222DE9F041BC
S315000005D0012508781A7000F5800000F58C5000029D
S315000005E0C3E907104869D14C58628E699878C3E907
S315000005F00A2665F3010098704878904214BF2E468B
S315000006000226987866F30100987091F90BC091F86C
S315000006100AE04FEA5C100CF01F06203005FA06F6D9
S3150000062044F82060BFF34F8FBFF36F8FC0480CF1C3
S31500000630C00650F8267062F3104740F8267050F84E
S315000006402660BC4E4FEA0E1E04EB0C075FFA8EFEC8
S3150000065087F800E346F82C3091F905C091F804E0DC
S315000006604FEA5C170CF01F08203705FA08F844F823
S315000006702780BFF34F8FBFF36F8F0CF1C00750F881
S31500000680278062F3104840F8278050F827704FEA19
S315000006900E1E04EB0C075FFA8EFE87F800E346F8A1
S315000006A02C3091F907C091F806E04FEA5C170CF080
S315000006B01F08203705FA08F844F82780BFF34F8F44
S315000006C0BFF36F8F0CF1C00750F8278062F3104814
S315000006D040F8278050F827704FEA0E1E04EB0C07EF
S315000006E05FFA8EFE87F800E346F82C3091F909C0D0
S315000006F091F808E04FEA5C170CF01F08203705FA5E
S3150000070008F844F82780BFF34F8FBFF36F8F0CF1C3
S31500000710C00750F8278062F3104840F8278050F849
S3150000072027004FEA0E10C0B2644484F8000346F86E
S315000007302C30EFF3108685F310884FF000450C78C7
S315000007407D48E540446824EA05044460406886F331
S31500000750108840F2F9301C6AA2701C6A22711C6A69
S3150000076062721C6AA2721C6AE2721C6A62830A784E
S3150000077020FA02F2D00702D540201A6AD074062465
S3150000078040F2F932186A04770878C240D20703D5D6
S315000007904FF478401A6A9082CA7848788C78D200EA
S315000007A0032842EA041200F0DA8000280CBFE22097
S315000007B0F2201C6AD2B222701A6A9071C869027B52
S315000007C0082A00F0C8801C6A520002F00202627316
S315000007D0002542788478D201640104F02004D2B264
S315000007E022431C6A25720478023C012C1C6A40F2E2
S315000007F0A780D2B2E27140681A6A8478547045784C
S31500000800147865F301041470C4789474D47900786C
S3150000081004F0A30400F05C002043D0710020C3E97B
S315000008200300C3E90500DC69414A94F90540CD6936
S3150000083004F1C00152F8216095F800C060F310463B
S3150000084042F821600CF0030C52F82110BFF35F8FC1
S315000008504FF0010E6109890004F01F0401F16041A7
S3150000086001F561410EFA04F4C1F880410C60D969C2
S3150000087091F90B4004F1C00152F8216060F3104673
S3150000088042F8216052F82110BFF35F8F6109890099
S3150000089004F01F0401F160410EFA04F401F5614110
S315000008A0C1F880410C60D96991F9074004F1C00193
S315000008B052F8216060F3104642F8216052F8211088
S315000008C0BFF35F8F6109890004F01F0401F16041E5
S315000008D00EFA04F401F56141C1F880410C60D96952
S315000008E091F9091001F1C00452F8246060F3104632
S315000008F042F8246052F82420BFF35F8F4A09920021
S3150000090001F01F0102F160420EFA01F102F56142A7
S31500000910C2F8801111601A6A4CF0700C82F802C09D
S315000009206989064A19815A60BDE8F08100E100E054
S3150000093000600040C4000020004008405549435371
S31500000940FF2565700078022808BF42F01002186A79
S31500000950D2B2C27162E70A241A6A547338E7F220E7
S3150000096042F0400225E700BFEFF30383103B1F4A26
S315000009705BB203F1C00152F8210020F4803042F846
S31500000980210052F821201A4A52F82300C3691B6934
S3150000099083B1036903B17047026A0021937803F0BB
S315000009A07F0343F004039370436AC160C3B180229E
S315000009B0FFF7E8BD0369026A002BEED08378C168B1
S315000009C003F00303022B0CD00B78D3708278D0E9A6
S315000009D0031302F003029B1A1144C0E90313D9E77B
S315000009E070470B8843F47E43D381EFE700600040F5
S315000009F0C400002010B582B0EFF30383103B1F4AFA
S31500000A005BB203F1C00152F8210020F4803042F8B5
S31500000A10210052F821201A4A52F82340A27802F007
S31500000A200303022B236A0CBF198A5979A3690CBFE9
S31500000A30C1F30801C9B2019143B9636AB3B1042293
S31500000A40204602B0BDE81040FFF79CBD02F003024D
S31500000A5001A9606900F038FBD4E90521A37803F009
S31500000A6003031A44C91AC4E9052109B102B010BD2D
S31500000A70636A002BFAD00122E2E700BF0060004063
S31500000A80C400002010B5EFF303830E4A103B5CB29E
S31500000A9052F82400026A937803F07B039370436A4A
S31500000AA01BB102220021FFF76DFD074A04F1C003C6
S31500000AB052F8231021F4803142F8231052F82330E3
S31500000AC010BD00BFC40000200060004010B5EFF369
S31500000AD003831A4A103B5CB252F82400837803F071
S31500000AE00303022B036A0CBF198A597993F804C0D1
S31500000AF00CBFC1F30801C9B21CF0100F0CF038028C
S31500000B0006D093F81CC01CF0010F08BF42F040024B
S31500000B1093F804C00CF0C70C83F804C0436A0BB109
S31500000B20FFF730FD064A04F1C00352F8231021F402
S31500000B30803142F8231052F8233010BDC400002043
S31500000B40006000402DE9F84F0388DBB180464FF086
S31500000B5000094FF0010BDFF884A000241E4D4FEA78
S31500000B60C907D8F8043035F8022BD919898891427B
S31500000B700AD00134032CF4D1B8F8003009F1010988
S31500000B804B45EAD8BDE8F88FDB590BFA04F603F0BB
S31500000B90B853B3F1807FF6B29AF8BB340ED0334225
S31500000BA0E7D0012000F0ECF99AF8BB34012023EAE3
S31500000BB006038AF8BB3400F0B3F9DAE73342D8D13A
S31500000BC0012000F0DDF99AF8BB34012033438AF89E
S31500000BD0BB3400F0A5F9CCE70015000000E00140A9
S31500000BE0F8B50646FFF7AEFFEFF31082012383F355
S31500000BF01088234F3B681BB92249CB704023CB702A
S31500000C003B6801333B6082F31088338823B30021AD
S31500000C101D4D08E01B01134445F82340328801317D
S31500000C208BB29A4218D9736853F8314003EBC1026C
S31500000C309288E0034FEA1223D2B2EBD502EB0310FF
S31500000C4055F820E024F4803C2EF4803E45F820E060
S31500000C501B0145F820C0DEE7EFF31082012383F382
S31500000C6010883B6813B13B68013B3B603B681BB98E
S31500000C7080200449CB70C87082F31088F8BD00BF8D
S31500000C80C0000020000D08400008084008B5034BCE
S31500000C9003600846FFF7A4FF002008BD54524F50DA
S31500000CA0064B074993F826001A6A51F82030C2F31A
S31500000CB002620449D3400B60704700BF00E0014068
S31500000CC00C0000204C0200204AF2035001232F4959
S31500000CD02F4A2DE9F043A1F8FE03A2F80431B2F839
S31500000CE004319BB2002BFAD101244FF40045294868
S31500000CF02949C0E903338560A2F80041274A8C6080
S31500000D000C600260264A01F5B83191F8265042601F
S31500000D100A6A81F8804481F83630224B436191F8A3
S31500000D203C30DA07FBD542F211740023174A0C85D2
S31500000D3081F82A3092F83C309B06FBD505244FF00B
S31500000D4003090123F1254FF0F00E4FF4254CDFF88F
S31500000D504080154F88F81C91176282F8264092F859
S31500000D602640124950F82400146A114EC4F3026456
S31500000D70E04030600D730B7281F80CE082F8303081
S31500000D8082F85230A2F8FEC3BDE8F08300E00140CD
S31500000D9000C001400C00002000700040002D310111
S31500000DA000127A0000C2EB0B211201200020004045
S31500000DB04C02002010B50024064B012083F8284081
S31500000DC000F0DEF8044B012083F8BB44BDE8104078
S31500000DD000F0A6B80030084000E00140A0F1010094
S31500000DE00028FBD1704700BF4FF47A7310B400FBA4
S31500000DF001F1114C114A2468B2FBF4F2A1FB030481
S31500000E003CB9B0FBF2F0800860B15DF8044BFFF727
S31500000E10E5BF9200B1FBF2F1A1FB03132BB9084623
S31500000E200028F2D15DF8044B70474FF0FF3C5DF8A7
S31500000E30044B6046FFF7D2BF4C02002000CA9A3B23
S31500000E4070B500240B4B0C4EB3F82021B3F840517B
S31500000E50ADB2154025FA04F3DB0704D556F8243065
S31500000E60E0B203B198470134102CF3D1014BA3F83B
S31500000E70305170BD006000408000002030B5032076
S31500000E8085B000F07DF86FF0FF054FF0FF31204C84
S31500000E90002322464FF0010E1E488564CDE901115C
S31500000EA0039104F1C00532F8020F590960B104A894
S31500000EB000EB810151F80C0C03F01F0C0EFA0CFC30
S31500000EC020EA0C0041F80C0C954203F10103EAD12B
S31500000ED00199114B0F4A03201167C3F8801202993A
S31500000EE05167C3F8841203999167C3F8881200F01A
S31500000EF017F80023094834F8022F03F1C001013323
S31500000F000AB140F82120A542F5D105B030BD00BF99
S31500000F103E1400000080004000E100E00060004058
S31500000F20EFF31081012383F31088124B33F810205E
S31500000F3092B22AB133F81020013A92B223F8102067
S31500000F4033F810309BB293B910B40B4A0B4CB2F87D
S31500000F50FE3334F810009BB243F4254323EA000322
S31500000F60A2F8FE3381F310885DF8044B704781F3D5
S31500000F70108870474402002000E001400815000078
S31500000F8030B4EFF31081012383F310880E4A32F850
S31500000F9010309BB26BB90D4C0D4DB4F8FE3335F8DD
S31500000FA010C09BB243EA0C0343F425439BB2A4F85A
S31500000FB0FE3332F8103001339BB222F8103081F341
S31500000FC0108830BC704700BF4402002000E001409A
S31500000FD00815000000BE704708B500F003F8FFF7DB
S31500000FE0A3FAFEE74FF4700270B52B4B2B4CC3F8F7
S31500000FF0882000209C60FFF781FAFFF765FE01203C
S31500001000FFF77CFA2368A3F5806383F30A882448F4
S31500001010244A0021121A00F064F82348234A24497E
S31500001020121A00F051F8234D234B5B1B002B07DDF2
S3150000103000249E1055F8043B01349847A642F9DC7B
S31500001040FFF72EFEFFF7B6FE0320FFF799FF0023FA
S315000010504FF6FF70194903F1080201330C2B21F8F2
S315000010601200F8D100240320FFF75AFF0320FFF7F0
S3150000107087FF134B03205C609C60DC601C61FFF7FC
S315000010804FFF0220FFF73AFAFFF7F8FE2046BDE8C9
S31500001090704000F017B800BF00ED00E0000000004F
S315000010A02800002050020020000000200C00002034
S315000010B0501500000400002008000020000D084024
S315000010C000000E40704700BF0A44431E914200D103
S315000010D0704710B511F8014B914203F8014FF9D151
S315000010E010BD02440346934200D1704703F8011B2A
S315000010F0F9E7FFFF4275696C7420776974682052BE
S31500001100656E6573617320416476616E6365642004
S31500001110466C657869626C6520536F667477617298
S3150000112065205061636B6167652076657273696FD0
S315000011306E20352E342E3000352E342E3000000031
S3150000114000000405F8B500BFF8BC08BC9E46704711
S31500001150F8B500BFF8BC08BC9E4670471B5B324A18
S31500001160000000001B5B48005265640D0A00000089
S31500001170477265656E0D0A00426C75650D0A00FFC3
S31500001180050200000C000C010C020C03000000001C
S31500001190000000001505000000000000A01100007E
S315000011A000010000000000200F00FFFF000000000B
S315000011B0FFFF000050000000C0110000000000000A
S315000011C00080000000000000008000000100000018
S315000011D00080000002000000008000000300000004
S315000011E01040000004000000104000000500000050
S315000011F0104000000600000010400000080000003B
S31500001200008000000E000000008000000F000000BB
S3150000121000000000040100000000000005010000BD
S31500001220000C010008010000000000000B01000096
S31500001230000C01120C010000000C01120D0100004F
S31500001240000C01120E010000000000000F0100005A
S315000012500000010502020000000001050302000073
S31500001260000001050402000000000105050200005F
S315000012700000000006020000000000000702000057
S315000012800000000008020000450C00000A020000F1
S31500001290000C01170B020000000C01170E020000E3
S315000012A0000C010000030000450C000003030000D1
S315000012B0450C000006030000450C00000703000073
S315000012C0450C00000B030000400C01070004000061
S315000012D0400C010701040000104000000204000059
S315000012E01040000003040000104000000404000049
S315000012F0000C011705040000000C0117060400008D
S31500001300000C011307040000450C0000090400004E
S31500001310000C01060A040000000C01060B04000084
S31500001320000C01060C040000000C01060D04000070
S31500001330000000000E040000000000000F04000082
S31500001340000C010500050000000C01050105000068
S31500001350000C010502050000000000000305000066
S315000013600000000005050000000000000605000062
S31500001370000C010508050000400C01070B050000E4
S31500001380400C01070C050000040C000001060000DB
S31500001390040C000002060000040C00000306000016
S315000013A0040C00000506000000000000080600000E
S315000013B0040C000009060000040C00000A060000E8
S315000013C0000000000B060000400C01050D060000A1
S315000013D0400C01050E060000000C01130F0600006C
S315000013E0000C011700070000000C011701070000A0
S315000013F0000C011702070000000C0117030700008C
S31500001400000C011704070000000C01170507000077
S31500001410000C010506070000000C01050707000087
S31500001420000000000807000000400000030800005C
S315000014300040000004080000000C0113080A000028
S315000014409E019F01A001A101000000000000000014
S315000014500000000000000000000000000000000086
S315000014600000000000000000000000000000000076
S315000014700000000000000000000000000000000066
S315000014800000000000000000000000000000000056
S315000014900000000000000000000000000000000046
S315000014A00000000000000000000000000000000036
S315000014B00000000000000000000000000000000026
S315000014C00000000000000000000000000000000016
S315000014D00000000000000000000000000000000006
S315000014E000000000000000000000000000000000F6
S315000014F000000000000000000000000000000000E6
S31500001500020403040404FFFF0100020008001000A7
S3150000151006000000181500000A0609060106020664
S31500001520030605061000000000000000017A5200C4
S31500001530027C0E011B0C0D001000000018000000BC
S315000015400000000010000000000000000000000085
S31100001550400035002D02000005020000DE
S3150100A100FFFFFFFFFFFFFFFFFFFFFFFFFFFFFFFF58
S3090100A110FFFFFFFF48
S3090100A134FFFFFFFF24
S3150100A200FFFDFFFFFFFFFFFFFFFFFFFFFFFFFFFF59
S3150100A210FFFFFFFFFFFFFFFFFFFFFFFFFFFFFFFF47
S3150100A220FFFFFFFFFFFFFFFFFFFFFFFFFFFFFFFF37
S3150100A230FFFFFFFFFFFFFFFFFFFFFFFFFFFFFFFF27
S3150100A240FFFFFFFFFFFFFFFFFFFFFFFFFFFFFFFF17
S3150100A250FFFFFFFFFFFFFFFFFFFFFFFFFFFFFFFF07
S3150100A260FFFFFFFFFFFFFFFFFFFFFFFFFFFFFFFFF7
S3150100A270FFFFFFFFFFFFFFFFFFFFFFFFFFFFFFFFE7
S3150100A280F8F8FFFFFFFFFFFFFFFFFFFFFFFFFFFFE5
S3150100A290FFFFFFFFFFFFFFFFFFFFFFFFFFFFFFFFC7
S3150100A2A0FFFFFFFFFFFFFFFFFFFFFFFFFFFFFFFFB7
S3150100A2B0FFFFFFFFFFFFFFFFFFFFFFFFFFFFFFFFA7
S3150100A2C0FFFFFFFFFFFFFFFFFFFFFFFFFFFFFFFF97
S70500000FD912
